:107E0000F894222428C009022200010100803209CE
:107E100004000001030000000921110100012215E6
:107E200000070581034000052A8644C04FC01201A7
:107E3000100100000040EB0367200100000000017A
:107E400006DCFF09FBA1010902150025FF75089654
:107E500082009102C0003324339444B624BEDD274F
:107E6000122DA5D041FE0C9400006894569A12E0A1
:107E700035BE15BF10E819832982C7ED00E20983DA
:107E800038820068098314E012BF0F7D098310E176
:107E900019BD12E119BD19B510FFFDCF18E01B8700
:107EA000298600E909837894FEF339865E981CE000
:107EB0007ED0FFCF3A8A3C8A01EC0D8B02E30E8B19
:107EC0002A8A3C8A0E8B08E0098F1895BB27A2E10D
:107ED0000A8C0D92AA31E1F727FD34C0203039F128
:107EE000213279F5393069F517EF6FD0EA8DFA8DC7
:107EF000FE3720F03068319609F4E89413E06AD038
:107F000000E4AB8DAA2B11F41BEF5FD00A8C1A8C06
:107F100011E060D0EE5F0A95A1F7E05815E05AD065
:107F200011E158D01BEF4CD01EEF198B37C0353004
:107F300021F0393031F45E9A4C854C873ED0406850
:107F40004C872CC0223850F5363041F5FEE7E6E08C
:107F500002E2523059F072965132049139F076961D
:107F60005130D9F3729605E15232C1F417EF198BF3
:107F7000801708F0802F198913FD189512FF10FF44
:107F800006C005910A8F8A95E1F71EEF198B1989B2
:107F900013FD189512FFFBCF1BEF198B098903FF07
:107FA000189517EF198B0C8900620C8B1895C0E699
:107FB000A89508E108831883089517EF01D01EEFF4
:107FC000198B198910FFFDCF0895198B198912FF9C
:107FD000FDCF089517BF37FFE89517B710FDFDCF08
:027FE000089502
:0400000300007E007B
:00000001FF
