:107E0000F89438C0A209022200010100803209045E
:107E100000000103000000092111010001221500EA
:107E20000705810340000500DA8752C05DC01201DA
:107E3000100100000040EB03672001000001000179
:107E40009506DCFF09FBA1010902150025FF750855
:107E50009682009102C0040309040E036E006100C3
:107E60006E006F0042007400012E020421172240B0
:107E7000FE56FF5ADD273324339444B6D4BF1D2F5A
:107E8000A4D041FE0C9400006894569A12E035BECE
:107E900015BF10E81983D983C7ED00E20983388242
:107EA0000068098314E012BF0F7D098310E119BD3A
:107EB00012E119BD19B510FFFDCF18E01B87D98756
:107EC00000E909837894FEF339861CE07ED0FFCF69
:107ED0003A8A3C8A01EC0D8B02E30E8BDA8B3C8AEA
:107EE0000E8B08E0098F1895BB27A2E10A8C0D9232
:107EF000AA31E1F727FD3CC0203031F1213241F5B4
:107F0000393031F517EF6FD0EA8DFA8DFE3720F05A
:107F10003068319609F4E89413E06AD000E4AB8D40
:107F2000AA2B11F41BEF5FD00A8C1A8C11E060D0E1
:107F3000EE5F0A95A1F7E05815E05AD011E158D04C
:107F40001BEF4CD01EEF3FC0353069F0393049F09F
:107F5000098903FF189517EF198B0C8900620C8BA8
:107F600018955E9A4C854C8736D040684C87F0CF88
:107F7000223870F7363061F74250533009F0452F00
:107F8000FEE7E8E6059015900416E0F309F7E12D09
:107F9000049107FDE3950F7717EF198B801708F011
:107FA000802F198913FD189512FF10FF06C0059147
:107FB0000A8F8A95E1F71EEF198B198913FD189521
:107FC00012FFFBCF1BEF198BC3CFC0E6A89508E1CA
:107FD00008831883089517EF01D01EEF198B1989B4
:107FE00010FFFDCF0895198B198912FFFDCF089559
:0E7FF00017BF37FFE89517B710FDFDCF0895B6
:0400000300007E007B
:00000001FF
